:020000040800F2
:1000000000B583B001F088FA384B394A1360394A99
:10001000136039490CE00A684B6801F10C048868E8
:1000200003E011681960043304329842F9D821467C
:10003000324B9942EFD32E4B1A68314B9A4204D17E
:100040002C4B1A682F4B9A4200D0FEE7274B2E4AC2
:1000500013602E4A13602E4B0AE0194651F8082B04
:100060005B6802E00020106004329A42FAD30B462B
:10007000284A9342F1D3244B1B6813B9234B1B68C6
:1000800003B1FEE701F0C4FA694601A801F03CFAA9
:10009000214C224B1C1BA410002504E01E4B53F8DE
:1000A000253098470135AC42F8DC1D4C1D4B1C1B1C
:1000B000A410002504E01A4B53F825309847013569
:1000C000AC42F8DC0099019801F010FC0546164C92
:1000D000164B1C1BA41004E0013C134B53F82430B6
:1000E0009847002CF8DC284601F0EAF9BABADECAD3
:1000F00000000020780000203001000848010008BE
:1001000078563412325476987C000020D8000020B3
:10011000480100085801000858010008580100086B
:10012000580100085801000858010008580100084B
:10013000D4260008000000207C000020D4260008FF
:1001400000000010000000107C000020DC000020F7
:08015000000000100000001087
:1001600010B5044600F0EAFD064BA3FB0030800901
:1001700000F08AF8002221464FF0FF3000F042F8EC
:10018000002010BDD34D621008B50B4B1A6842F425
:1001900000721A601A6842F480621A601A6842F4A7
:1001A00080721A60032000F00FF80020FFF7D8FFDC
:1001B00001F0C0FB002008BD003C0240014B186864
:1001C000704700BF9000002010B50446C31E042BEA
:1001D00003D9A421094801F0ABFB094AD36823F4F1
:1001E000E0631B041B0C240204F4E064234343F08B
:1001F000BF6343F40033D36010BD00BFA0230008E9
:1002000000ED00E070B504460E4615460F2A03D9EE
:10021000BC211A4801F08CFB0F2E03D9BD211748D1
:1002200001F086FB164BDA68C2F30222C2F1070125
:10023000042928BF0421131D062B01D9033A00E02D
:100240000022012303FA01F101393140914003FA00
:1002500002F2013A2A400A43002C06DA04F00F04A5
:100260001201D2B2074B1A5570BD1201D2B204F17D
:10027000604404F5614484F8002370BDA0230008A5
:1002800000ED00E014ED00E00138B0F1807F0AD20B
:10029000064B5860F021064A82F82310002098602F
:1002A00007221A6070470120704700BF10E000E08D
:1002B00000ED00E010B50446042805D020B140F25E
:1002C000B311084801F034FB042C05D1064A136829
:1002D00043F00403136010BD034A136823F00403C2
:1002E000136010BDA023000810E000E02DE9F047E6
:1002F00082B080460F46A84B984217D003F5806322
:10030000984213D003F5806398420FD003F58063C1
:1003100098420BD003F58063984207D003F5406301
:10032000984203D0C5219D4801F002FB3B881BB9D0
:10033000C6219A4801F0FCFA7B68012B22D9112BC7
:1003400020D0022B1ED0122B1CD0954A934219D0DC
:1003500002F58012934215D002F58012934211D01B
:10036000A2F5F81293420DD002F58012934209D003
:1003700002F58012934205D0032B03D0C721874892
:1003800001F0D6FABB68022B03D9C821834801F0DB
:10039000CFFA0025F9E00124AC403E682640B44283
:1003A00040F0F2807B68022B01D0122B3BD13B69DD
:1003B0004BB3092B27D033B32BB323B31BB3012B80
:1003C00021D020D0022B1ED01DD01CD0042B1AD03F
:1003D00019D018D0052B16D015D0062B13D0052B0D
:1003E00011D0072B0FD00ED0082B0CD00A2B0AD01F
:1003F000092B08D007D00C2B05D00F2B03D0D92107
:10040000664801F095FAEA08083258F8220005F02B
:10041000070399000F238B4020EA03003B698B40C0
:10042000034348F82230D8F800304FEA450A4FF02D
:10043000030909FA0AF96FEA090903EA09027B6864
:1004400003F0030303FA0AF31343C8F800307B6890
:100450005A1E012A03D9112B01D0122B1BD1FB6884
:10046000032B03D9EC214D4801F062FAD8F808308B
:1004700009EA0302FB6803FA0AF31343C8F80830D9
:10048000D8F8043023EA04047B68C3F30013AB40BC
:100490001C43C8F80440D8F80C3009EA0309BB68CB
:1004A00003FA0AF349EA0303C8F80C307B6813F037
:1004B000805F69D0002301933A4B5A6C42F480422A
:1004C0005A645B6C03F480430193019BA9088A1C66
:1004D000354B53F8222005F003039B000F20984072
:1004E00022EA00002C4A904511D002F58062904526
:1004F0000FD002F5806290450DD002F580629045E4
:100500000BD002F58062904509D1042208E0002258
:1005100006E0012204E0022202E0032200E00522BC
:1005200002FA03F3034302311F4A42F821301F4B02
:100530001A68F34302EA0301786810F4803F01D09F
:1005400046EA0201194A1160526803EA020178681A
:1005500010F4003F01D046EA0201144A516092684B
:1005600003EA0201786810F4801F01D046EA020114
:100570000E4A9160D2681340796811F4001F01D0CF
:1005800046EA0203094AD36001350F2D7FF603AF17
:1005900002B0BDE8F08700BF00000240D42300088D
:1005A000000011100038024000380140003C0140BA
:1005B00038B505460C4621B94FF4C871044801F01E
:1005C000B7F92B691C4201D0012038BD002038BD8D
:1005D000D423000870B5064615460C4621B940F2F2
:1005E000B111084801F0A4F9012D04D94FF4D971D3
:1005F000044801F09DF90DB1B46170BD2404B461EB
:1006000070BD00BFD423000838B504460D4621B99B
:100610004FF4E471034801F08BF96169694061614D
:1006200038BD00BFD423000830B583B0044603684A
:100630000F2B03D9F6219C4801F07AF9236813F0B7
:10064000010F45D06368012B05D9052B03D0FB2191
:10065000954801F06DF9954B9B6803F00C03042B52
:100660000AD0924B9B6803F00C03082B0CD18F4BE4
:100670005B6813F4800F07D08C4B1B6813F4003FAA
:1006800026D0636823BBCCE12279894B1A7063685A
:100690007BB1FFF793FD054605E0FFF78FFD401B9B
:1006A000642800F2C081814B1B6813F4003FF4D032
:1006B0000EE0FFF783FD054605E0FFF77FFD401BD9
:1006C000642800F2B281794B1B6813F4003FF4D127
:1006D000236813F0020F6AD0E368012B04D940F2BB
:1006E0002D11714801F024F923691F2B04D94FF40F
:1006F00097716D4801F01CF96C4B9B6813F00C0F5F
:100700000AD06A4B9B6803F00C03082B1BD1674B84
:100710005B6813F4800F16D1644B1B6813F0020F53
:1007200003D0E368012B40F082816048036823F026
:10073000F8012369F82292FAA2F2B2FA82F2934007
:100740000B43036033E0E368FBB10122594B1A60AD
:10075000FFF734FD054605E0FFF730FD401B02289A
:1007600000F26781514B1B6813F0020FF4D04F4821
:10077000036823F0F8012369F82292FAA2F2B2FA90
:1007800082F293400B43036011E00022494B1A6050
:10079000FFF714FD054605E0FFF710FD401B02289A
:1007A00000F24981414B1B6813F0020FF4D123681A
:1007B00013F0080F2ED06369012B04D94FF4B771E1
:1007C000394801F0B5F8636993B101223A4B1A60D8
:1007D000FFF7F4FC054605E0FFF7F0FC401B02289C
:1007E00000F22B81314B5B6F13F0020FF4D011E05C
:1007F0000022314B1A60FFF7E1FC054605E0FFF7E8
:10080000DDFC401B022800F21A81284B5B6F13F0BD
:10081000020FF4D1236813F0040F60D0A368012BFA
:1008200006D9052B04D04FF4CC711F4801F080F895
:10083000002301931D4B1A6C42F080521A641B6C0A
:1008400003F080530193019B1C4A136843F48073A7
:100850001360FFF7B3FC054605E0FFF7AFFC401B54
:10086000022800F2EE80154B1B6813F4807FF4D051
:10087000227A134B1A70A3688BB1FFF79FFC0546D1
:1008800007E0FFF79BFC401B41F28833984200F2DF
:10089000DA80064B1B6F13F0020FF2D01FE0FFF758
:1008A0008DFC054616E000BF142400080038024005
:1008B0000238024000004742800E4742007000406C
:1008C00070380240FFF77AFC401B41F288339842AF
:1008D00000F2BB80634B1B6F13F0020FF2D1A369D0
:1008E000022B04D940F2CD115F4801F021F8A36931
:1008F000002B00F0AC805B4A926802F00C02082AE0
:1009000000F0A780022B79D1E3693BB1B3F5800FEA
:1009100004D04FF4EB71544801F00AF8236A3F2BDE
:1009200004D940F2D711504801F002F8636A323B13
:10093000B3F5BF7F04D94FF4EC714B4800F0F8FFDA
:10094000A36A022B0AD0042B08D0062B06D0082B52
:1009500004D040F2D911444800F0EAFFE36A043BB6
:100960000B2B04D94FF4ED713F4800F0E1FF00225A
:100970003E4B1A60FFF722FC054604E0FFF71EFC21
:10098000401B022867D8374B1B6813F0007FF5D156
:10099000E169236A1943636A47F6C07292FAA2F2C8
:1009A000B2FA82F293401943A36A5B085A1E4FF4CD
:1009B000403393FAA3F3B3FA83F302FA03F30B433E
:1009C000E26A4FF0706191FAA1F1B1FA81F18A40C7
:1009D0001343244A53600122244B1A60FFF7EEFBB5
:1009E000044604E0FFF7EAFB001B022835D81D4B44
:1009F0001B6813F0007FF5D0002031E000221B4B74
:100A00001A60FFF7DBFB044604E0FFF7D7FB001B8F
:100A1000022824D8134B1B6813F0007FF5D1002067
:100A20001EE001201CE003201AE0032018E0012052
:100A300016E0032014E0032012E0032010E003205E
:100A40000EE003200CE003200AE0032008E0002071
:100A500006E0012004E0032002E0032000E0032080
:100A600003B030BD00380240142400086000474243
:100A700070B504460D460368013B0E2B04D94FF4B4
:100A80000E71834800F054FF072D04D940F239213C
:100A90007F4800F04DFF7F4B1B6803F00F039D4222
:100AA00008D9EBB27B4A1370136803F00F039D4221
:100AB00040F0DB80236813F0020F1DD0A368A3B1C0
:100AC000802B12D0902B10D0A02B0ED0B02B0CD09E
:100AD000C02B0AD0D02B08D0E02B06D0F02B04D0AE
:100AE0004FF414716A4800F023FF6B498B6823F0C0
:100AF000F002A36813438B60236813F0010F64D0E6
:100B00006368032B04D940F25721614800F010FFBD
:100B10006268012A05D1604B1B6813F4003F0FD1B6
:100B2000A5E0931E012B05D85B4B1B6813F0007FDB
:100B300006D19EE0584B1B6813F0020F00F09B801B
:100B400055498B6823F0030313438B60FFF736FB93
:100B500006466368012B0FD107E0FFF72FFB801BD0
:100B600041F28833984200F288804B4B9B6803F037
:100B70000C03042BF1D128E0022B0ED106E0FFF785
:100B80001DFB801B41F28833984278D8424B9B680A
:100B900003F00C03082BF2D117E0032B10D13E4BCE
:100BA0009B68FFF70BFB801B41F288339842F6D914
:100BB00067E0FFF703FB801B41F28833984262D85D
:100BC000354B9B6813F00C0FF3D1324B1B6803F0CD
:100BD0000F039D4207D2EAB22E4B1A701B6803F036
:100BE0000F039D4251D1236813F0040F19D0E3681D
:100BF00083B1B3F5805F0DD0B3F5A05F0AD0B3F534
:100C0000C05F07D0B3F5E05F04D040F2B5212048C3
:100C100000F08EFE20498B6823F4E052E368134312
:100C20008B60236813F0080F1AD0236983B1B3F5E2
:100C3000805F0DD0B3F5A05F0AD0B3F5C05F07D0D9
:100C4000B3F5E05F04D04FF42F71114800F070FE4F
:100C5000114A936823F46043216943EAC103936016
:100C60000020FFF77DFA002070BD012070BD01203B
:100C700070BD012070BD012070BD032070BD032038
:100C800070BD032070BD032070BD012070BD00BF8A
:100C900014240008003C024000380240244B9B68AA
:100CA00003F00C03042B3FD0082B01D021487047E0
:100CB00010B41F4B586800F03F005B6813F4800FBE
:100CC00010D01D4BB3FBF0F0194B5A6847F6C071BA
:100CD0000A4091FAA1F3B3FA83F322FA03F303FB78
:100CE00000F310E0134BB3FBF0F0114B5A6847F6DA
:100CF000C07402EA040194FAA4F2B2FA82F221FA70
:100D000002F202FB00F30A4A506800F440324FF44A
:100D1000403090FAA0F0B0FA80F022FA00F00130F2
:100D20004000B3FBF0F001E00348704710BC70478F
:100D3000003802400024F40000DD6D0008B5FFF724
:100D4000ADFF084B9B6803F0F002F02393FAA3F386
:100D5000B3FA83F322FA03F3034AD35CD840034B7C
:100D6000186008BD00380240042400080C00002070
:100D700008B5FFF7E3FF084B9B6803F4E0524FF41C
:100D8000E05393FAA3F3B3FA83F322FA03F3034A8B
:100D9000D35CD84008BD00BF0038024004240008DE
:100DA00008B5FFF7CBFF084B9B6803F460424FF494
:100DB000604393FAA3F3B3FA83F322FA03F3034AEB
:100DC000D35CD84008BD00BF0038024004240008AE
:100DD0002DE9F84304464268B14B9A4204D940F2E7
:100DE000DD61B04800F0A4FDE3683BB1B3F5005FFE
:100DF00004D040F2DE61AB4800F09AFD236953B1A4
:100E0000B3F5806F07D0B3F5C06F04D040F2DF6157
:100E1000A44800F08DFD63694FF6F372134200D1D0
:100E200023B94FF4DC619F4800F082FD21680B6913
:100E300023F44052E36813430B612068C36823F432
:100E4000164222F00C02A168236919436369194311
:100E5000E3690B431343C36021684B6923F4407279
:100E6000A36913434B61E369B3F5004F40F0BB80C6
:100E7000276803F1804303F510439F4203D003F535
:100E800080639F4257D1FFF78BFF00EB800000EBA0
:100E9000800065686D00B0FBF5F5834EA6FB053557
:100EA0006D092D01FFF77CFF00EB800000EB800057
:100EB00063685B00B0FBF3F9FFF772FF00EB8000A3
:100EC00000EB800063685B00B0FBF3F3A6FB032339
:100ED0005B094FF0640808FB1393DB003233A6FB79
:100EE00003235B095B0003F4F8731D44FFF758FF0D
:100EF00000EB800000EB800063685B00B0FBF3F95F
:100F0000FFF74EFF00EB800000EB800063685B00A2
:100F1000B0FBF3F3A6FB03235B0908FB13984FEA2E
:100F2000C80808F13208A6FB0836C6F34216354455
:100F3000BD60BDE8F883FFF71BFF00EB800000EB0E
:100F4000800065686D00B0FBF5F5574EA6FB0535D2
:100F50006D092D01FFF70CFF00EB800000EB800016
:100F600063685B00B0FBF3F9FFF702FF00EB800062
:100F700000EB800063685B00B0FBF3F3A6FB032388
:100F80005B094FF0640808FB1393DB003233A6FBC8
:100F900003235B095B0003F4F8731D44FFF7E8FECD
:100FA00000EB800000EB800063685B00B0FBF3F9AE
:100FB000FFF7DEFE00EB800000EB800063685B0063
:100FC000B0FBF3F3A6FB03235B0908FB13984FEA7E
:100FD000C80808F13208A6FB0836C6F342163544A5
:100FE000BD60BDE8F8832668304B9E4203D003F510
:100FF00080639E425CD1FFF7D3FE00EB800000EBE4
:1010000080006568AD00B0FBF5F5274FA7FB0535FF
:101010006D092D01FFF7C4FE00EB800000EB80009E
:1010200063689B00B0FBF3F8FFF7BAFE00EB8000AB
:1010300000EB800063689B00B0FBF3F3A7FB032386
:101040005B094FF0640909FB13831B013233A7FBD3
:1010500003235B0903F0F0031D44FFF7A1FE00EB3F
:10106000800000EB800063689B00B0FBF3F8FFF7A3
:1010700097FE00EB800000EB800063689B00B0FBF4
:10108000F3F3A7FB03235B0909FB13831B01323333
:10109000A7FB0323C3F343131D44B560BDE8F883E6
:1010A000A037A000442400081F85EB510010014028
:1010B000FFF75EFE00EB800000EB80006568AD008E
:1010C000B0FBF5F5254FA7FB05356D092D01FFF7A1
:1010D0004FFE00EB800000EB800063689B00B0FBDC
:1010E000F3F8FFF745FE00EB800000EB800063683B
:1010F0009B00B0FBF3F3A7FB03235B094FF06409EC
:1011000009FB13831B013233A7FB03235B0903F0A5
:10111000F0031D44FFF72CFE00EB800000EB800085
:1011200063689B00B0FBF3F8FFF722FE00EB800042
:1011300000EB800063689B00B0FBF3F3A7FB032385
:101140005B0909FB13831B013233A7FB0323C3F3A2
:1011500043131D44B560BDE8F88300BF1F85EB5104
:101160002DE9F04105460E4690461C46FFF726F84D
:101170000746B8F1000F28D057E0B4F1FF3F24D064
:1011800024B1FFF71BF8C01B84421ED22A68D36823
:1011900023F08003D3602A68D36823F02003D36050
:1011A0002A68D36823F48073D3602A68536923F0D4
:1011B00001035361202385F8393085F83A30002344
:1011C00085F838300320BDE8F0812B681B6836EACB
:1011D0000303D2D10020BDE8F081B4F1FF3F24D059
:1011E00024B1FEF7EBFFC01B84421ED22A68D368ED
:1011F00023F08003D3602A68D36823F02003D360F0
:101200002A68D36823F48073D3602A68536923F073
:1012100001035361202385F8393085F83A300023E3
:1012200085F838300320BDE8F0812B681B6836EA6A
:101230000303D2D00020BDE8F08100BF002875D0A4
:1012400010B504468369FBB10368394A93420BD059
:10125000A2F54C42934207D002F55042934203D08C
:10126000FB21344800F064FBA369F3B1B3F5807F40
:101270001BD0B3F5007F18D0B3F5407F15D0FC210B
:101280002C4800F055FB10E00368294A93420CD02B
:10129000A2F54C42934208D002F55042934204D04A
:1012A0004FF48071234800F043FBA3683BB1B3F5D2
:1012B000805F04D04FF481711E4800F039FBE36970
:1012C0003BB1B3F5004F04D040F20311194800F0D0
:1012D0002FFB94F8393013F0FF0F05D1002384F869
:1012E0003830204600F032FB242384F8393022685D
:1012F000D36823F40053D3602046FFF769FD2268CA
:10130000136923F4904313612268536923F02A037D
:1013100053612268D36843F40053D3600020E06334
:10132000202384F8393084F83A3010BD012070470A
:10133000001001404424000870B51E4690F8393072
:10134000DBB2202B49D104460D46002947D0002AA4
:1013500047D090F83830012B45D0012380F8383041
:101360000023C363212380F839308284C28422E0C1
:10137000013BE384A368B3F5805F11D133460022BB
:1013800080212046FFF7ECFE78BB22682B88C3F350
:101390000803536023690BB902350CE001350AE0FC
:1013A0003346002280212046FFF7DAFEF8B9236891
:1013B0002A785A600135E38C002BD9D133460022BC
:1013C00040212046FFF7CCFE034690B9202284F846
:1013D0003920002284F838200CE002230AE001239F
:1013E00008E0012306E0022304E0032302E00323D4
:1013F00000E00323184670BD70B51E4690F83A30E1
:10140000DBB2202B4FD104460D4600294DD0002AD7
:101410004DD090F83830012B4BD0012380F8383074
:101420000023C363222380F83A308285C28530E0EE
:10143000013BE385A368B3F5805F16D133460022F4
:1014400020212046FFF78CFE002834D1236933B9D0
:1014500023685B68C3F3080325F8023B19E023689F
:101460005B68DBB225F8013B13E033460022202104
:101470002046FFF775FE00BB236923B923685B682C
:101480002B70013505E023685B6803F07F032B7048
:101490000135E38D002BCBD1202384F83A30002096
:1014A00084F8380070BD022070BD012070BD01209D
:1014B00070BD022070BD032070BD032070BD00BF51
:1014C000FEE700BF08B50D4B1B6813B90C4A0B4B68
:1014D0001A600A4B1A68C31C23F00303134409491A
:1014E0008B4206D900F05EFA0C2303604FF0FF3008
:1014F00008BD02490B60104608BD00BF80000020F7
:10150000DC00002000FC002001230360014B0B6085
:10151000704700BF0400002008B500F009F8024B36
:10152000024A9A6008BD00BF00ED00E0000000081C
:101530000C4B1A6842F001021A60002199601A6887
:1015400022F0847222F480321A60074A5A601A68C4
:1015500022F480221A60D9604FF00062034B9A6037
:10156000704700BF003802401030002400ED00E05A
:10157000224B9B6803F00C03042B07D0082B09D0E7
:10158000002B2DD11E4A1F4B1A602CE01E4A1D4B0A
:101590001A6028E0194B5A685B6803F03F0312F4A5
:1015A000800F09D0184AB2FBF3F2144B5B68C3F307
:1015B000881303FB02F208E0114AB2FBF3F30F4A6F
:1015C0005168C1F3881101FB03F20C4B5B68C3F354
:1015D000014301335B00B2FBF3F30A4A136002E0FC
:1015E000074A084B1A60054B9B68C3F30313074A6D
:1015F000D15C044A1368CB40136070470038024046
:101600000024F4000C00002000DD6D0074240008AC
:1016100008B5FEF7B9FD00F015F9FFF7A9FF08BD01
:1016200070B58AB000240194214B1A6B42F0040279
:101630001A631A6B02F004020192019A02941A6B67
:1016400042F080021A631A6B02F080020292029A40
:1016500003941A6B42F001021A631A6B02F0010242
:101660000392039A04941A6B42F002021A631B6BF2
:1016700003F002030493049B4FF4005305930D4BB6
:101680000693079405A90C48FEF730FE2026059620
:101690000123069307940894084D05A92846FEF7F0
:1016A00025FE224631462846FEF794FF0AB070BD5B
:1016B0000038024000001210000802400000024002
:1016C00008B50848084B03604FF4164343600023F5
:1016D0008360C36003610C2242618361C361FFF7D1
:1016E000ADFD08BD980000200044004038B5174DFE
:1016F000284600F081F9164C4FF0FF3382B229469C
:101700002046FFF719FE134D284600F075F94FF0FB
:10171000FF3382B229462046FFF70EFE0E4D2846C3
:1017200000F06AF94FF0FF3382B229462046FFF7F6
:1017300003FE0A4D284600F05FF94FF0FF3382B2F6
:1017400029462046FFF7F8FD38BD00BF8424000875
:10175000980000208C24000894240008C424000869
:1017600030B583B00C4D284600F046F90B4C4FF0D5
:10177000FF3382B229462046FFF7DEFD4FF0FF33EC
:10178000012201A92046FFF737FE01A800F006F963
:10179000C0B203B030BD00BF48250008980000204B
:1017A000431EDBB2022B39D810B588B0044602467E
:1017B0001D49684600F0FCF8684600F01DF94FF03E
:1017C000FF3382B269461948FFF7B6FD022C0CD0F0
:1017D000032C02D0012C23D101E0022021E02021A2
:1017E0001348FEF711FF01201BE04FF40051114890
:1017F000FEF7DEFE08B9104A00E0104A10496846BC
:1018000000F0D6F8684600F0F7F84FF0FF3382B2E8
:1018100069460648FFF790FD012002E0002070476E
:10182000012008B010BD00BF64250008980000200A
:10183000000002400008024050250008582500081A
:101840006825000870B594B000240194244B1A6CEC
:1018500042F080521A641B6C03F080530193019B89
:101860000294204A136823F4404343F40043136076
:10187000136803F440430293029B02250895012359
:101880000B9310230C930E950F9410934FF4A873A1
:101890001193042612960723139308A8FEF7C4FE9B
:1018A0000F230393049505944FF4805306930794F4
:1018B000294603A8FFF7DCF8FFF740FA0A4BA3FB21
:1018C00000308009FEF7E0FC3046FEF7F3FC2246CC
:1018D00021464FF0FF30FEF795FC14B070BD00BFFD
:1018E0000038024000700040D34D621010B5FEF782
:1018F0004BFCFFF7A7FFFFF793FEFFF7E1FE0A4C53
:10190000204600F079F84FF0FF3382B221460748B5
:10191000FFF712FDFFF7EAFEFFF722FF0446FFF78D
:101920003FFF032CF8D1F5E784250008980000203C
:10193000704700BF08B50720FEF746FC002211469D
:101940004FF0FF30FEF75EFC08BD00BF0268104B91
:101950009A421CD100B587B0002300930D4A116C48
:1019600041F400311164126C02F400320092009ACA
:101970000C220192022202920393049307230593FF
:1019800001A90548FEF7B2FC07B05DF804FB7047FB
:101990000044004000380240000002400A220021BA
:1019A00000F0B8B8014B1868704700BF7000002005
:1019B0000EB400B59CB04FF402711DABADF814101D
:1019C000029006906FF000410A48049107914FF68B
:1019D000FF7153F8042BADF816100068019302A9AB
:1019E00000F0FCF8029B00221A701CB05DF804EBBA
:1019F00003B0704770000020034613F8012B002A43
:101A0000FBD1181A013870472DE9F047804640484D
:101A1000D0F800900F463D4615F8014B09EB040045
:101A2000407800F0080000F0FF0608B12F46F2E70A
:101A30002D2C03D1BD1C7C78012603E02B2C04BF88
:101A40007C78BD1C13B1102B0AD15BE0302C57D130
:101A5000287800F0DF0058284DD16C78102302352B
:101A6000002E14BF4FF0004C6FF0004C0027BCFB61
:101A7000F3FA384603FB1ACC09EB040E9EF801E09A
:101A80001EF0040F01D0303C0BE01EF0030E1BD003
:101A9000BEF1010F0CBF4FF0370E4FF0570ECEEBDB
:101AA0000404A34210DDB7F1FF3F0AD0504506D829
:101AB00001D1644503DC03FB0040012701E04FF046
:101AC000FF3715F8014BD7E77B1C0CD1002E4FF0E8
:101AD000220314BF4FF000406FF00040C8F8003000
:101AE0002AB9BDE8F08706B1404272B107B1691E5C
:101AF0001160BDE8F0873024002BB1D10823AFE797
:101B00000A23ADE7302CA3D0AAE7BDE8F08700BFD9
:101B10007400002013460A46014602480068FFF799
:101B200073BF00BF700000202DE9F0478E689E4211
:101B300082460C46914698463ED88A8912F4906FA8
:101B40003AD0256809696F1A6569022305EB4505D6
:101B500095FBF3F57B1C43449D4238BF1D4653055E
:101B60000FD5294600F088FB064698B13A46216910
:101B700000F016FBA38923F4906343F08003A38154
:101B800013E02A4600F0CCFB064670B921695046A6
:101B900000F02CFB0C23CAF80030A38943F040036B
:101BA000A3814FF0FF30BDE8F087266165613E44B8
:101BB000ED1B2660A5604646464528BF4646324690
:101BC0004946206800F0F7FAA3689B1BA3602368CE
:101BD0001E4426600020BDE8F08700002DE9F04F8C
:101BE0009DB0804603938B891C060D4616460DD585
:101BF0000B695BB9402100F03FFB2860286118B9F0
:101C00000C23C8F80030CDE040236B61002309931A
:101C100020238DF82930DFF89CB130238DF82A304D
:101C200037463C4614F8013B1BB9B7EB060910D008
:101C300003E0252BF9D02746F3E74B4632462946E9
:101C40004046FFF771FF013000F0A780099B4B442D
:101C500009933B78002B00F0A08000234FF0FF3267
:101C600004930793059206938DF853301A93012637
:101C7000052221784E4800F043FA671C049B38B1D6
:101C80004B4A801A06FA00F0184304903C46EFE7EE
:101C9000D90644BF20228DF853201A0744BF2B22B7
:101CA0008DF8532022782A2A03D0079A00210A208F
:101CB0000BE0039A111D12680391002A10DA5242B8
:101CC00043F00200079204900BE0274601343B7872
:101CD000303B092B03D800FB02320121F5E701B1AB
:101CE00007923B782E2B1ED17B782A2B0AD1039B9F
:101CF0001A1D1B680392002BB8BF4FF0FF33023749
:101D0000059310E000230593781C19460A24074622
:101D100001303A78303A092A03D804FB0121012323
:101D2000F5E703B1059103223978224800F0E8F97C
:101D300040B14023CBEB000003FA00F0049B1843B2
:101D40000490013739781C488DF8281006227E1C33
:101D500000F0D6F988B1194B33B9039B073323F050
:101D600007030833039314E003AB00932A46144B94
:101D700004A94046AFF3008007E003AB00932A4676
:101D80000F4B04A9404600F093F8B0F1FF3F8246A4
:101D900003D0099B5344099342E7AB895B0601D406
:101DA000099801E04FF0FF301DB0BDE8F08F00BF93
:101DB0009F260008A5260008A926000800000000AC
:101DC000291B00082DE9F04791461F460A698B68D8
:101DD000DDF820809342B8BF1346C9F8003091F86F
:101DE000432006460C4612B10133C9F8003023687F
:101DF000990642BFD9F800300233C9F8003025688F
:101E000015F0060510D104F1190A07E00123524626
:101E100039463046C04701301AD00135E368D9F859
:101E200000209B1A9D42F1DB94F843302268003376
:101E300018BF012392060FD5E1185A1C302081F8F3
:101E40004300224494F8451082F84310023303E023
:101E50004FF0FF30BDE8F08704F1430239463046C9
:101E6000C0470130F4D02268D9F80050E36802F08E
:101E70000602042A08BF5D1B2269A3680CBF25EA7D
:101E8000E57500259342C4BF9B1AED184FF0000979
:101E90001A344D4509D00123224639463046C04701
:101EA0000130D5D009F10109F3E70020BDE8F08742
:101EB0002DE9F04317460A7E85B06E2A98460646FD
:101EC0000C460C9B01F1430E00F0AE8011D8632A42
:101ED00022D009D8002A00F0BB80582A40F0CA80DE
:101EE00081F84520834955E0642A1ED0692A1CD018
:101EF000C0E0732A00F0B08009D86F2A2ED0702A73
:101F000040F0B8800A6842F020020A603EE0752A7C
:101F100024D0782A3AD0ADE01A6801F14205111DAB
:101F20001960136884F84230A8E021681A6811F03B
:101F3000800F02D0111D196008E011F0400F02F16E
:101F40000401196002D0B2F9003000E01368002BE0
:101F50003CDA2D225B4284F8432037E021681A687E
:101F600011F0800F02D0111D196007E011F0400F31
:101F700002F10401196001D0138800E01368227E89
:101F80005C496F2A14BF0A2208221BE078225A49B2
:101F900084F845202268186812F0800F00F10405CB
:101FA0001D6003D1550601D5038800E00368D00702
:101FB00044BF42F0200222601BB9226822F02002B6
:101FC00022601022002084F8430001E049490A22DF
:101FD0006568A560002D08DB206820F00400206003
:101FE0002BB9002D7DD175460CE0002B79D07546BC
:101FF000B3FBF2F002FB1033CB5C05F8013D034666
:102000000028F5D1082A0BD12368DA0708D52369FF
:1020100062689A42DEBF302305F8013C05F1FF35C6
:10202000C5EB0E0323612EE008681A68496910F0B9
:10203000800F03D0101D1860136808E010F0400FE7
:1020400002F104001860136801D0198000E01960E3
:1020500000232361754616E01A68111D1960156882
:1020600062680021284600F04BF808B1401B606010
:10207000636804E004F1420584F8422001232361EF
:10208000002384F84330CDF800803B4603AA214664
:102090003046FFF797FE013002D14FF0FF3026E0C7
:1020A00023692A4639463046C0470130F5D02368B7
:1020B0009B0710D5002504F1190907E001234A46C2
:1020C00039463046C0470130E7D00135E368039A0E
:1020D0009B1A9D42F2DBE068039B9842B8BF18460A
:1020E00005E00B7884F8423004F142058AE705B038
:1020F000BDE8F083B0260008C126000800000000FB
:1021000001F0FF01102A2BDB10F0070F08D010F8A8
:10211000013B013A8B422DD010F0070F42B3F6D1AC
:10212000F0B441EA012141EA014122F007047FF0C5
:1021300000070023F0E80256083C85EA010586EA1C
:10214000010685FA47F5A3FA87F586FA47F6A5FA58
:1021500087F68EB9EED1F0BC01F0FF0102F0070264
:1021600032B110F8013B013A83EA010313B1F8D10F
:102170000020704701387047002D06BF35460338F0
:10218000073815F0010F07D1013015F4807F02BF29
:10219000013015F4C03F0130F0BC0138704700BF7A
:1021A00010B5431E0A44914204D011F8014B03F8C4
:1021B000014FF8E710BD884210B501EB020301D8CA
:1021C000421E0BE09842FBD28118D21AD34204D0AF
:1021D00013F8014D01F8014DF8E710BD994204D004
:1021E00011F8014B02F8014FF8E710BD30B5002996
:1021F0003ED051F8042C0B1F1E49002AB8BF9B1873
:102200000A680C4612B95A600B6030BD9A420ED96A
:1022100019685818824204BF106852685A6004BF97
:1022200009181960236030BD994203D80A465168E5
:102230000029F9D1146815199D420AD11B6823445D
:10224000D0188142136013D10868034413604B68AF
:102250000DE002D90C23036030BD18681C18A142A0
:1022600004BF0C684968596004BF001918605360C6
:1022700030BD00BF8C00002070B5CD1C25F00305DB
:1022800008350C2D38BF0C25002D064603DA0C232B
:102290003360002070BDA942F9D81F4B1C681A4654
:1022A0002146A1B10B685B1B0ED40B2B03D90B602D
:1022B000CC18CD501EE08C420DBF63684B68636044
:1022C000136018BF0C4615E00C464968E9E7134C4B
:1022D00023681BB9304600F049F820602946304693
:1022E00000F044F8431CD2D0C41C24F00304A042E4
:1022F0000AD1256004F10B00231D20F00700C31A4A
:1023000009D05A42E25070BD211A304600F02EF832
:102310000130EED1BBE770BD8C00002088000020AA
:10232000F8B5074615460E4621B91146BDE8F840F6
:10233000FFF7A2BF1AB9FFF759FF2846F8BD00F012
:1023400025F885420ED929463846FFF795FF044601
:1023500050B131462A46FFF723FF31463846FFF792
:1023600045FF01E03046F8BD2046F8BD38B5064CC3
:102370000023054608462360FFF7A4F8431C02D15A
:10238000236803B12B6038BD9400002051F8040C81
:102390000028BEBF091851F8043CC0180438704723
:1023A0002E2E2F73797374656D2F7372632F737470
:1023B0006D333266342D68616C2F73746D33326601
:1023C0003478785F68616C5F636F727465782E63D0
:1023D000000000002E2E2F73797374656D2F7372B9
:1023E000632F73746D333266342D68616C2F737490
:1023F0006D3332663478785F68616C5F6770696FDF
:102400002E63000000000000010203040102030427
:10241000060708092E2E2F73797374656D2F73725A
:10242000632F73746D333266342D68616C2F73744F
:102430006D3332663478785F68616C5F7263632EE7
:10244000630000002E2E2F73797374656D2F7372E5
:10245000632F73746D333266342D68616C2F73741F
:102460006D3332663478785F68616C5F7561727461
:102470002E630000000000000000000001020304C1
:10248000060708091B5B303B304800001B5B324AE3
:102490000000000057656C636F6D6520746F204EFF
:1024A00075636C656F205541525420436F6D6D7597
:1024B0006E69636174696F6E20636F6E736F6C65B4
:1024C0000A0D000053656C65637420746865206FA5
:1024D0007074696F6E20796F752061726520696E06
:1024E000746572657374656420696E3A0D0A09310A
:1024F0002E20546F67676C65204C4432204C454455
:102500000D0A09322E205265616420555345522030
:10251000425554544F4E207374617475730D0A09FB
:10252000332E20436C6561722073637265656E2083
:10253000616E64207072696E742074686973206DB6
:1025400065737361676520000D0A3E20000000007E
:10255000505245535345440052454C454153454420
:1025600000000000256400000D0A5553455220422A
:102570005554544F4E207374617475733A2025730B
:1025800000000000736F6D657468696E6720696E86
:10259000746572657374696E670A0D0043000020EC
:1025A0002020202020202020282828282820202003
:1025B00020202020202020202020202020202088B3
:1025C0001010101010101010101010101010100417
:1025D0000404040404040404041010101010101067
:1025E000414141414141010101010101010101015B
:1025F0000101010101010101010110101010101071
:10260000424242424242020202020202020202022A
:102610000202020202020202020210101010200046
:1026200000000000000000000000000000000000AA
:10263000000000000000000000000000000000009A
:10264000000000000000000000000000000000008A
:10265000000000000000000000000000000000007A
:10266000000000000000000000000000000000006A
:10267000000000000000000000000000000000005A
:10268000000000000000000000000000000000004A
:102690000000000000000000000000000000002317
:1026A0002D302B2000686C4C00656667454647005E
:1026B0003031323334353637383941424344454678
:1026C000003031323334353637383961626364650E
:0226D0006600A2
:1026D4007856341284000020000000000024F40026
:1026E40000000000000000000000000000000000E6
:1026F40000000000000000000000000000000000D6
:102704009C250008000000000000000000000000FC
:1027140000000000000000000000000000000000B5
:1027240000000000000000000000000000000000A5
:102734000000000000000000000000000000000095
:0C274400100000209E25000832547698FA
:0400000508000001EE
:00000001FF
